:020000040000FA
:100000005430AA000430AB003030AC0007309F0001
:100010004B30831686008312061686160611A2013F
:1000200006080339A10006080339A50021060319B3
:100030001328A20403302202031D13282508A1005F
:1000400006128616A0100A30A300A400A8012B08EF
:10005000A7002C08A900F2308100513083168100DE
:1000600083120615A010061286166400061B3A2895
:10007000201586130108031D3A28F2308100060876
:100080000339A5002106A2002508A10020100A308E
:100090002218A300A30803194F28A30350282014F3
:1000A0000A30A218A400A40803195828A403592848
:1000B0002014201C5F28061106168616352886197E
:1000C0009A28A0186528A90B972806112A088316D4
:1000D000810083120530810006168612A014201DAF
:1000E00086170130A9002708A500A6010314A60C55
:1000F000A50B77282608A8000130A70B8028A700A9
:100100006400061B8528201586130108031D80281E
:100110002A0883168100831205308100A80B8028ED
:100120005130831681008312F230810031282B0870
:10013000A70031282C08A900A010861320112B0835
:04014000A7003128BB
:084000000000000000000400B4
:02400E00453F2C
:00000001FF
