:020000040000FA
:020000001128C5
:08000800AF00030E8312B000EB
:100010000C1C0C280C10AE0A300E8300AF0E2F0EF5
:1000200009005430AA000430AB003030AC00073077
:100030009F00850120116430AD004B30831686008F
:100040000C14023085008312A001AE013130900003
:100050008E018F010B178B17061686160611A2014B
:1000600006080339A10006080339A5002106031973
:100070003328A20403302202031D33282508A100DF
:10008000061286160510A0100A30A300A400A801CD
:100090002B08A7002C08A900F230810051308316EC
:1000A000810083120615A010061286160510640042
:1000B000061B5D2820158613A011851CA015A01D08
:1000C0006A2806112E186728061286125728061667
:1000D000861657280108031D6A28F2308100060899
:1000E0000339A5002106A2002508A10020100A302E
:1000F0002218A300A30803197F28A3038028201433
:100100000A30A218A400A40803198828A403892887
:100110002014201C8F2806110616861657288619CB
:10012000DB28A0189528A90BD82806112A088316C1
:100130008100831205308100061686120514A01472
:100140006430AD00201D86170130A9002708A500E6
:10015000A6010314A60CA50BAA282608A8000130A6
:10016000A70BB328A7006400061BB9282015861327
:10017000A011851CA015A01DC62806112E18C32885
:1001800006128612B32806168616B3280108031D28
:10019000B3282A0883168100831205308100A80B3A
:1001A000B3285130831681008312F2308100522827
:1001B0002B08A70052282C08A900A0108613AD0B0D
:1001C000E5282011A0116430AD002B08A7005228AB
:084000000000000000000400B4
:02400E00453F2C
:104200004D005A0017005300700061007800420012
:104210006F006F00730074006500720036002E009E
:04422000300000006A
:00000001FF
